{
  "contractName": "Kisansetu",
  "abi": [
    {
      "inputs": [
        {
          "internalType": "address",
          "name": "_buyer",
          "type": "address"
        },
        {
          "internalType": "uint256",
          "name": "_price",
          "type": "uint256"
        },
        {
          "internalType": "string",
          "name": "_crop",
          "type": "string"
        }
      ],
      "stateMutability": "nonpayable",
      "type": "constructor"
    },
    {
      "inputs": [],
      "name": "buyer",
      "outputs": [
        {
          "internalType": "address",
          "name": "",
          "type": "address"
        }
      ],
      "stateMutability": "view",
      "type": "function",
      "constant": true
    },
    {
      "inputs": [],
      "name": "crop",
      "outputs": [
        {
          "internalType": "string",
          "name": "",
          "type": "string"
        }
      ],
      "stateMutability": "view",
      "type": "function",
      "constant": true
    },
    {
      "inputs": [],
      "name": "farmer",
      "outputs": [
        {
          "internalType": "address",
          "name": "",
          "type": "address"
        }
      ],
      "stateMutability": "view",
      "type": "function",
      "constant": true
    },
    {
      "inputs": [],
      "name": "isFulfilled",
      "outputs": [
        {
          "internalType": "bool",
          "name": "",
          "type": "bool"
        }
      ],
      "stateMutability": "view",
      "type": "function",
      "constant": true
    },
    {
      "inputs": [],
      "name": "price",
      "outputs": [
        {
          "internalType": "uint256",
          "name": "",
          "type": "uint256"
        }
      ],
      "stateMutability": "view",
      "type": "function",
      "constant": true
    },
    {
      "inputs": [],
      "name": "fulfillContract",
      "outputs": [],
      "stateMutability": "payable",
      "type": "function",
      "payable": true
    }
  ],
  "bytecode": "0x60806040523480156200001157600080fd5b5060405162000af038038062000af083398181016040528101906200003791906200024c565b336000806101000a81548173ffffffffffffffffffffffffffffffffffffffff021916908373ffffffffffffffffffffffffffffffffffffffff16021790555082600160006101000a81548173ffffffffffffffffffffffffffffffffffffffff021916908373ffffffffffffffffffffffffffffffffffffffff160217905550816002819055508060039080519060200190620000d7929190620000fc565b506000600460006101000a81548160ff0219169083151502179055505050506200045e565b8280546200010a9062000396565b90600052602060002090601f0160209004810192826200012e57600085556200017a565b82601f106200014957805160ff19168380011785556200017a565b828001600101855582156200017a579182015b82811115620001795782518255916020019190600101906200015c565b5b5090506200018991906200018d565b5090565b5b80821115620001a85760008160009055506001016200018e565b5090565b6000620001c3620001bd84620002ef565b620002bb565b905082815260208101848484011115620001dc57600080fd5b620001e984828562000360565b509392505050565b60008151905062000202816200042a565b92915050565b600082601f8301126200021a57600080fd5b81516200022c848260208601620001ac565b91505092915050565b600081519050620002468162000444565b92915050565b6000806000606084860312156200026257600080fd5b60006200027286828701620001f1565b9350506020620002858682870162000235565b925050604084015167ffffffffffffffff811115620002a357600080fd5b620002b18682870162000208565b9150509250925092565b6000604051905081810181811067ffffffffffffffff82111715620002e557620002e4620003fb565b5b8060405250919050565b600067ffffffffffffffff8211156200030d576200030c620003fb565b5b601f19601f8301169050602081019050919050565b60006200032f8262000336565b9050919050565b600073ffffffffffffffffffffffffffffffffffffffff82169050919050565b6000819050919050565b60005b838110156200038057808201518184015260208101905062000363565b8381111562000390576000848401525b50505050565b60006002820490506001821680620003af57607f821691505b60208210811415620003c657620003c5620003cc565b5b50919050565b7f4e487b7100000000000000000000000000000000000000000000000000000000600052602260045260246000fd5b7f4e487b7100000000000000000000000000000000000000000000000000000000600052604160045260246000fd5b620004358162000322565b81146200044157600080fd5b50565b6200044f8162000356565b81146200045b57600080fd5b50565b610682806200046e6000396000f3fe6080604052600436106100555760003560e01c8063385a9c371461005a5780633fb239d0146100855780637150d8ae146100b0578063878a0db7146100db578063a035b1fe146100e5578063d811fcf014610110575b600080fd5b34801561006657600080fd5b5061006f61013b565b60405161007c91906104ab565b60405180910390f35b34801561009157600080fd5b5061009a61014e565b6040516100a791906104c6565b60405180910390f35b3480156100bc57600080fd5b506100c56101dc565b6040516100d29190610490565b60405180910390f35b6100e3610202565b005b3480156100f157600080fd5b506100fa61035a565b6040516101079190610528565b60405180910390f35b34801561011c57600080fd5b50610125610360565b6040516101329190610490565b60405180910390f35b600460009054906101000a900460ff1681565b6003805461015b906105da565b80601f0160208091040260200160405190810160405280929190818152602001828054610187906105da565b80156101d45780601f106101a9576101008083540402835291602001916101d4565b820191906000526020600020905b8154815290600101906020018083116101b757829003601f168201915b505050505081565b600160009054906101000a900473ffffffffffffffffffffffffffffffffffffffff1681565b600160009054906101000a900473ffffffffffffffffffffffffffffffffffffffff1673ffffffffffffffffffffffffffffffffffffffff163373ffffffffffffffffffffffffffffffffffffffff1614610292576040517f08c379a000000000000000000000000000000000000000000000000000000000815260040161028990610508565b60405180910390fd5b60025434146102d6576040517f08c379a00000000000000000000000000000000000000000000000000000000081526004016102cd906104e8565b60405180910390fd5b60008054906101000a900473ffffffffffffffffffffffffffffffffffffffff1673ffffffffffffffffffffffffffffffffffffffff166108fc349081150290604051600060405180830381858888f1935050505015801561033c573d6000803e3d6000fd5b506001600460006101000a81548160ff021916908315150217905550565b60025481565b60008054906101000a900473ffffffffffffffffffffffffffffffffffffffff1681565b61038d8161055f565b82525050565b61039c81610571565b82525050565b60006103ad82610543565b6103b7818561054e565b93506103c78185602086016105a7565b6103d08161063b565b840191505092915050565b60006103e860158361054e565b91507f496e636f72726563742076616c75652073656e742e00000000000000000000006000830152602082019050919050565b600061042860288361054e565b91507f4f6e6c79207468652062757965722063616e2066756c66696c6c20746865206360008301527f6f6e74726163742e0000000000000000000000000000000000000000000000006020830152604082019050919050565b61048a8161059d565b82525050565b60006020820190506104a56000830184610384565b92915050565b60006020820190506104c06000830184610393565b92915050565b600060208201905081810360008301526104e081846103a2565b905092915050565b60006020820190508181036000830152610501816103db565b9050919050565b600060208201905081810360008301526105218161041b565b9050919050565b600060208201905061053d6000830184610481565b92915050565b600081519050919050565b600082825260208201905092915050565b600061056a8261057d565b9050919050565b60008115159050919050565b600073ffffffffffffffffffffffffffffffffffffffff82169050919050565b6000819050919050565b60005b838110156105c55780820151818401526020810190506105aa565b838111156105d4576000848401525b50505050565b600060028204905060018216806105f257607f821691505b602082108114156106065761060561060c565b5b50919050565b7f4e487b7100000000000000000000000000000000000000000000000000000000600052602260045260246000fd5b6000601f19601f830116905091905056fea26469706673582212205156343d9c324387e83a5103d3c9842721b8bd741007866c5385ea92773d60cc64736f6c63430008000033",
  "immutableReferences": {},
  "source": "// SPDX-License-Identifier: MIT\npragma solidity ^0.8.0;\n\ncontract Kisansetu {\n    address public farmer;\n    address public buyer;\n    uint public price;\n    string public crop;\n\n    bool public isFulfilled;\n\n    constructor(address _buyer, uint _price, string memory _crop) {\n        farmer = msg.sender;\n        buyer = _buyer;\n        price = _price;\n        crop = _crop;\n        isFulfilled = false;\n    }\n\n    function fulfillContract() public payable {\n        require(msg.sender == buyer, \"Only the buyer can fulfill the contract.\");\n        require(msg.value == price, \"Incorrect value sent.\");\n\n        payable(farmer).transfer(msg.value);\n        isFulfilled = true;\n    }\n}\n",
  "sourcePath": "/home/slashex/Documents/Code/kisansetu/contracts/Kisansetu.sol",
  "compiler": {
    "name": "solc",
    "version": "0.8.0+commit.c7dfd78e.Emscripten.clang"
  },
  "schemaVersion": "3.4.16",
  "updatedAt": "2024-09-14T06:08:26.642Z",
  "networkType": "ethereum",
  "devdoc": {
    "kind": "dev",
    "methods": {},
    "version": 1
  },
  "userdoc": {
    "kind": "user",
    "methods": {},
    "version": 1
  }
}